{
  "_format": "hh-sol-artifact-1",
  "contractName": "Arturvers",
  "sourceName": "contracts/Arturverse.sol",
  "abi": [
    {
      "inputs": [],
      "stateMutability": "nonpayable",
      "type": "constructor"
    },
    {
      "anonymous": false,
      "inputs": [
        {
          "indexed": true,
          "internalType": "address",
          "name": "owner",
          "type": "address"
        },
        {
          "indexed": true,
          "internalType": "address",
          "name": "approved",
          "type": "address"
        },
        {
          "indexed": true,
          "internalType": "uint256",
          "name": "tokenId",
          "type": "uint256"
        }
      ],
      "name": "Approval",
      "type": "event"
    },
    {
      "anonymous": false,
      "inputs": [
        {
          "indexed": true,
          "internalType": "address",
          "name": "owner",
          "type": "address"
        },
        {
          "indexed": true,
          "internalType": "address",
          "name": "operator",
          "type": "address"
        },
        {
          "indexed": false,
          "internalType": "bool",
          "name": "approved",
          "type": "bool"
        }
      ],
      "name": "ApprovalForAll",
      "type": "event"
    },
    {
      "anonymous": false,
      "inputs": [
        {
          "indexed": false,
          "internalType": "uint256",
          "name": "_fromTokenId",
          "type": "uint256"
        },
        {
          "indexed": false,
          "internalType": "uint256",
          "name": "_toTokenId",
          "type": "uint256"
        }
      ],
      "name": "BatchMetadataUpdate",
      "type": "event"
    },
    {
      "anonymous": false,
      "inputs": [
        {
          "indexed": false,
          "internalType": "uint256",
          "name": "_tokenId",
          "type": "uint256"
        }
      ],
      "name": "MetadataUpdate",
      "type": "event"
    },
    {
      "anonymous": false,
      "inputs": [
        {
          "indexed": true,
          "internalType": "address",
          "name": "previousOwner",
          "type": "address"
        },
        {
          "indexed": true,
          "internalType": "address",
          "name": "currentOwner",
          "type": "address"
        }
      ],
      "name": "OwnerTransfer",
      "type": "event"
    },
    {
      "anonymous": false,
      "inputs": [
        {
          "indexed": true,
          "internalType": "address",
          "name": "from",
          "type": "address"
        },
        {
          "indexed": true,
          "internalType": "address",
          "name": "to",
          "type": "address"
        },
        {
          "indexed": true,
          "internalType": "uint256",
          "name": "tokenId",
          "type": "uint256"
        }
      ],
      "name": "Transfer",
      "type": "event"
    },
    {
      "inputs": [
        {
          "internalType": "address",
          "name": "to",
          "type": "address"
        },
        {
          "internalType": "uint256",
          "name": "tokenId",
          "type": "uint256"
        }
      ],
      "name": "approve",
      "outputs": [],
      "stateMutability": "nonpayable",
      "type": "function"
    },
    {
      "inputs": [
        {
          "internalType": "address",
          "name": "owner",
          "type": "address"
        }
      ],
      "name": "balanceOf",
      "outputs": [
        {
          "internalType": "uint256",
          "name": "",
          "type": "uint256"
        }
      ],
      "stateMutability": "view",
      "type": "function"
    },
    {
      "inputs": [
        {
          "internalType": "address",
          "name": "newOwner",
          "type": "address"
        }
      ],
      "name": "changeOwner",
      "outputs": [],
      "stateMutability": "nonpayable",
      "type": "function"
    },
    {
      "inputs": [
        {
          "internalType": "uint256",
          "name": "tokenId",
          "type": "uint256"
        }
      ],
      "name": "getApproved",
      "outputs": [
        {
          "internalType": "address",
          "name": "",
          "type": "address"
        }
      ],
      "stateMutability": "view",
      "type": "function"
    },
    {
      "inputs": [
        {
          "internalType": "address",
          "name": "user",
          "type": "address"
        }
      ],
      "name": "getAssets",
      "outputs": [
        {
          "internalType": "uint256[]",
          "name": "",
          "type": "uint256[]"
        }
      ],
      "stateMutability": "view",
      "type": "function"
    },
    {
      "inputs": [
        {
          "internalType": "address",
          "name": "owner",
          "type": "address"
        },
        {
          "internalType": "address",
          "name": "operator",
          "type": "address"
        }
      ],
      "name": "isApprovedForAll",
      "outputs": [
        {
          "internalType": "bool",
          "name": "",
          "type": "bool"
        }
      ],
      "stateMutability": "view",
      "type": "function"
    },
    {
      "inputs": [
        {
          "internalType": "string",
          "name": "redeemtoken",
          "type": "string"
        },
        {
          "internalType": "string",
          "name": "tokenURI",
          "type": "string"
        },
        {
          "internalType": "uint256",
          "name": "itemId",
          "type": "uint256"
        }
      ],
      "name": "mintCertificate",
      "outputs": [
        {
          "internalType": "uint256",
          "name": "",
          "type": "uint256"
        }
      ],
      "stateMutability": "nonpayable",
      "type": "function"
    },
    {
      "inputs": [],
      "name": "name",
      "outputs": [
        {
          "internalType": "string",
          "name": "",
          "type": "string"
        }
      ],
      "stateMutability": "view",
      "type": "function"
    },
    {
      "inputs": [],
      "name": "owner",
      "outputs": [
        {
          "internalType": "address",
          "name": "",
          "type": "address"
        }
      ],
      "stateMutability": "view",
      "type": "function"
    },
    {
      "inputs": [
        {
          "internalType": "uint256",
          "name": "tokenId",
          "type": "uint256"
        }
      ],
      "name": "ownerOf",
      "outputs": [
        {
          "internalType": "address",
          "name": "",
          "type": "address"
        }
      ],
      "stateMutability": "view",
      "type": "function"
    },
    {
      "inputs": [
        {
          "internalType": "string",
          "name": "redeemtoken",
          "type": "string"
        },
        {
          "internalType": "address",
          "name": "user",
          "type": "address"
        },
        {
          "internalType": "uint256",
          "name": "tokenId",
          "type": "uint256"
        }
      ],
      "name": "redeem",
      "outputs": [],
      "stateMutability": "nonpayable",
      "type": "function"
    },
    {
      "inputs": [
        {
          "internalType": "address",
          "name": "from",
          "type": "address"
        },
        {
          "internalType": "address",
          "name": "to",
          "type": "address"
        },
        {
          "internalType": "uint256",
          "name": "tokenId",
          "type": "uint256"
        }
      ],
      "name": "safeTransferFrom",
      "outputs": [],
      "stateMutability": "nonpayable",
      "type": "function"
    },
    {
      "inputs": [
        {
          "internalType": "address",
          "name": "from",
          "type": "address"
        },
        {
          "internalType": "address",
          "name": "to",
          "type": "address"
        },
        {
          "internalType": "uint256",
          "name": "tokenId",
          "type": "uint256"
        },
        {
          "internalType": "bytes",
          "name": "data",
          "type": "bytes"
        }
      ],
      "name": "safeTransferFrom",
      "outputs": [],
      "stateMutability": "nonpayable",
      "type": "function"
    },
    {
      "inputs": [
        {
          "internalType": "address",
          "name": "operator",
          "type": "address"
        },
        {
          "internalType": "bool",
          "name": "approved",
          "type": "bool"
        }
      ],
      "name": "setApprovalForAll",
      "outputs": [],
      "stateMutability": "nonpayable",
      "type": "function"
    },
    {
      "inputs": [
        {
          "internalType": "bytes4",
          "name": "interfaceId",
          "type": "bytes4"
        }
      ],
      "name": "supportsInterface",
      "outputs": [
        {
          "internalType": "bool",
          "name": "",
          "type": "bool"
        }
      ],
      "stateMutability": "view",
      "type": "function"
    },
    {
      "inputs": [],
      "name": "symbol",
      "outputs": [
        {
          "internalType": "string",
          "name": "",
          "type": "string"
        }
      ],
      "stateMutability": "view",
      "type": "function"
    },
    {
      "inputs": [
        {
          "internalType": "uint256",
          "name": "tokenId",
          "type": "uint256"
        }
      ],
      "name": "tokenURI",
      "outputs": [
        {
          "internalType": "string",
          "name": "",
          "type": "string"
        }
      ],
      "stateMutability": "view",
      "type": "function"
    },
    {
      "inputs": [
        {
          "internalType": "address",
          "name": "from",
          "type": "address"
        },
        {
          "internalType": "address",
          "name": "to",
          "type": "address"
        },
        {
          "internalType": "uint256",
          "name": "tokenId",
          "type": "uint256"
        }
      ],
      "name": "transferFrom",
      "outputs": [],
      "stateMutability": "nonpayable",
      "type": "function"
    }
  ],
  "bytecode": "0x60806040523480156200001157600080fd5b506040518060400160405280600a81526020017f41727475727665727365000000000000000000000000000000000000000000008152506040518060400160405280600381526020017f415456000000000000000000000000000000000000000000000000000000000081525081600090816200008f9190620003e2565b508060019081620000a19190620003e2565b50505033600760006101000a81548173ffffffffffffffffffffffffffffffffffffffff021916908373ffffffffffffffffffffffffffffffffffffffff160217905550600760009054906101000a900473ffffffffffffffffffffffffffffffffffffffff1673ffffffffffffffffffffffffffffffffffffffff16600073ffffffffffffffffffffffffffffffffffffffff167f5327f96e1b66776c2f90adb141c8f65efa8dd259adb405009213276527cbf69a60405160405180910390a3620004c9565b600081519050919050565b7f4e487b7100000000000000000000000000000000000000000000000000000000600052604160045260246000fd5b7f4e487b7100000000000000000000000000000000000000000000000000000000600052602260045260246000fd5b60006002820490506001821680620001ea57607f821691505b6020821081036200020057620001ff620001a2565b5b50919050565b60008190508160005260206000209050919050565b60006020601f8301049050919050565b600082821b905092915050565b6000600883026200026a7fffffffffffffffffffffffffffffffffffffffffffffffffffffffffffffffff826200022b565b6200027686836200022b565b95508019841693508086168417925050509392505050565b6000819050919050565b6000819050919050565b6000620002c3620002bd620002b7846200028e565b62000298565b6200028e565b9050919050565b6000819050919050565b620002df83620002a2565b620002f7620002ee82620002ca565b84845462000238565b825550505050565b600090565b6200030e620002ff565b6200031b818484620002d4565b505050565b5b8181101562000343576200033760008262000304565b60018101905062000321565b5050565b601f82111562000392576200035c8162000206565b62000367846200021b565b8101602085101562000377578190505b6200038f62000386856200021b565b83018262000320565b50505b505050565b600082821c905092915050565b6000620003b76000198460080262000397565b1980831691505092915050565b6000620003d28383620003a4565b9150826002028217905092915050565b620003ed8262000168565b67ffffffffffffffff81111562000409576200040862000173565b5b620004158254620001d1565b6200042282828562000347565b600060209050601f8311600181146200045a576000841562000445578287015190505b620004518582620003c4565b865550620004c1565b601f1984166200046a8662000206565b60005b8281101562000494578489015182556001820191506020850194506020810190506200046d565b86831015620004b45784890151620004b0601f891682620003a4565b8355505b6001600288020188555050505b505050505050565b6134cd80620004d96000396000f3fe608060405234801561001057600080fd5b50600436106101165760003560e01c80637336c38d116100a2578063a22cb46511610071578063a22cb46514610305578063a6f9dae114610321578063b88d4fde1461033d578063c87b56dd14610359578063e985e9c51461038957610116565b80637336c38d1461027d578063742978da146102995780638da5cb5b146102c957806395d89b41146102e757610116565b806323b872dd116100e957806323b872dd146101b557806342842e0e146101d15780635a4da205146101ed5780636352211e1461021d57806370a082311461024d57610116565b806301ffc9a71461011b57806306fdde031461014b578063081812fc14610169578063095ea7b314610199575b600080fd5b61013560048036038101906101309190611f8e565b6103b9565b6040516101429190611fd6565b60405180910390f35b61015361041a565b6040516101609190612081565b60405180910390f35b610183600480360381019061017e91906120d9565b6104ac565b6040516101909190612147565b60405180910390f35b6101b360048036038101906101ae919061218e565b6104f2565b005b6101cf60048036038101906101ca91906121ce565b610609565b005b6101eb60048036038101906101e691906121ce565b610692565b005b61020760048036038101906102029190612356565b6106b2565b60405161021491906123f0565b60405180910390f35b610237600480360381019061023291906120d9565b6107d2565b6040516102449190612147565b60405180910390f35b6102676004803603810190610262919061240b565b610858565b60405161027491906123f0565b60405180910390f35b61029760048036038101906102929190612438565b61090f565b005b6102b360048036038101906102ae919061240b565b61098a565b6040516102c09190612565565b60405180910390f35b6102d1610a21565b6040516102de9190612147565b60405180910390f35b6102ef610a47565b6040516102fc9190612081565b60405180910390f35b61031f600480360381019061031a91906125b3565b610ad9565b005b61033b6004803603810190610336919061240b565b610aef565b005b61035760048036038101906103529190612694565b610c3f565b005b610373600480360381019061036e91906120d9565b610ca1565b6040516103809190612081565b60405180910390f35b6103a3600480360381019061039e9190612717565b610db3565b6040516103b09190611fd6565b60405180910390f35b6000634906490660e01b7bffffffffffffffffffffffffffffffffffffffffffffffffffffffff1916827bffffffffffffffffffffffffffffffffffffffffffffffffffffffff19161480610413575061041282610e47565b5b9050919050565b60606000805461042990612786565b80601f016020809104026020016040519081016040528092919081815260200182805461045590612786565b80156104a25780601f10610477576101008083540402835291602001916104a2565b820191906000526020600020905b81548152906001019060200180831161048557829003601f168201915b5050505050905090565b60006104b782610f29565b6004600083815260200190815260200160002060009054906101000a900473ffffffffffffffffffffffffffffffffffffffff169050919050565b60006104fd826107d2565b90508073ffffffffffffffffffffffffffffffffffffffff168373ffffffffffffffffffffffffffffffffffffffff160361056d576040517f08c379a000000000000000000000000000000000000000000000000000000000815260040161056490612829565b60405180910390fd5b8073ffffffffffffffffffffffffffffffffffffffff1661058c610f74565b73ffffffffffffffffffffffffffffffffffffffff1614806105bb57506105ba816105b5610f74565b610db3565b5b6105fa576040517f08c379a00000000000000000000000000000000000000000000000000000000081526004016105f1906128bb565b60405180910390fd5b6106048383610f7c565b505050565b3073ffffffffffffffffffffffffffffffffffffffff168373ffffffffffffffffffffffffffffffffffffffff1603610677576040517f08c379a000000000000000000000000000000000000000000000000000000000815260040161066e9061294d565b60405180910390fd5b610682838383611035565b61068d82848361132e565b505050565b6106ad83838360405180602001604052806000815250610c3f565b505050565b60003373ffffffffffffffffffffffffffffffffffffffff16600760009054906101000a900473ffffffffffffffffffffffffffffffffffffffff1673ffffffffffffffffffffffffffffffffffffffff1614610744576040517f08c379a000000000000000000000000000000000000000000000000000000000815260040161073b906129df565b60405180910390fd5b61074e308361149f565b61075882846116bc565b600860003073ffffffffffffffffffffffffffffffffffffffff1673ffffffffffffffffffffffffffffffffffffffff1681526020019081526020016000208290806001815401808255809150506001900390600052602060002001600090919091909150556107c88483611760565b8190509392505050565b6000806107de83611787565b9050600073ffffffffffffffffffffffffffffffffffffffff168173ffffffffffffffffffffffffffffffffffffffff160361084f576040517f08c379a000000000000000000000000000000000000000000000000000000000815260040161084690612a4b565b60405180910390fd5b80915050919050565b60008073ffffffffffffffffffffffffffffffffffffffff168273ffffffffffffffffffffffffffffffffffffffff16036108c8576040517f08c379a00000000000000000000000000000000000000000000000000000000081526004016108bf90612add565b60405180910390fd5b600360008373ffffffffffffffffffffffffffffffffffffffff1673ffffffffffffffffffffffffffffffffffffffff168152602001908152602001600020549050919050565b806009846040516109209190612b39565b9081526020016040518091039020541461096f576040517f08c379a000000000000000000000000000000000000000000000000000000000815260040161096690612b9c565b60405180910390fd5b61097a308383611035565b61098582308361132e565b505050565b6060600860008373ffffffffffffffffffffffffffffffffffffffff1673ffffffffffffffffffffffffffffffffffffffff168152602001908152602001600020805480602002602001604051908101604052809291908181526020018280548015610a1557602002820191906000526020600020905b815481526020019060010190808311610a01575b50505050509050919050565b600760009054906101000a900473ffffffffffffffffffffffffffffffffffffffff1681565b606060018054610a5690612786565b80601f0160208091040260200160405190810160405280929190818152602001828054610a8290612786565b8015610acf5780601f10610aa457610100808354040283529160200191610acf565b820191906000526020600020905b815481529060010190602001808311610ab257829003601f168201915b5050505050905090565b610aeb610ae4610f74565b83836117c4565b5050565b3373ffffffffffffffffffffffffffffffffffffffff16600760009054906101000a900473ffffffffffffffffffffffffffffffffffffffff1673ffffffffffffffffffffffffffffffffffffffff1614610b7f576040517f08c379a0000000000000000000000000000000000000000000000000000000008152600401610b76906129df565b60405180910390fd5b8073ffffffffffffffffffffffffffffffffffffffff16600760009054906101000a900473ffffffffffffffffffffffffffffffffffffffff1673ffffffffffffffffffffffffffffffffffffffff167f5327f96e1b66776c2f90adb141c8f65efa8dd259adb405009213276527cbf69a60405160405180910390a380600760006101000a81548173ffffffffffffffffffffffffffffffffffffffff021916908373ffffffffffffffffffffffffffffffffffffffff16021790555050565b610c50610c4a610f74565b83611930565b610c8f576040517f08c379a0000000000000000000000000000000000000000000000000000000008152600401610c8690612c2e565b60405180910390fd5b610c9b848484846119c5565b50505050565b6060610cac82610f29565b6000600660008481526020019081526020016000208054610ccc90612786565b80601f0160208091040260200160405190810160405280929190818152602001828054610cf890612786565b8015610d455780601f10610d1a57610100808354040283529160200191610d45565b820191906000526020600020905b815481529060010190602001808311610d2857829003601f168201915b505050505090506000610d56611a21565b90506000815103610d6b578192505050610dae565b600082511115610da0578082604051602001610d88929190612c4e565b60405160208183030381529060405292505050610dae565b610da984611a38565b925050505b919050565b6000600560008473ffffffffffffffffffffffffffffffffffffffff1673ffffffffffffffffffffffffffffffffffffffff16815260200190815260200160002060008373ffffffffffffffffffffffffffffffffffffffff1673ffffffffffffffffffffffffffffffffffffffff16815260200190815260200160002060009054906101000a900460ff16905092915050565b60007f80ac58cd000000000000000000000000000000000000000000000000000000007bffffffffffffffffffffffffffffffffffffffffffffffffffffffff1916827bffffffffffffffffffffffffffffffffffffffffffffffffffffffff19161480610f1257507f5b5e139f000000000000000000000000000000000000000000000000000000007bffffffffffffffffffffffffffffffffffffffffffffffffffffffff1916827bffffffffffffffffffffffffffffffffffffffffffffffffffffffff1916145b80610f225750610f2182611aa0565b5b9050919050565b610f3281611b0a565b610f71576040517f08c379a0000000000000000000000000000000000000000000000000000000008152600401610f6890612a4b565b60405180910390fd5b50565b600033905090565b816004600083815260200190815260200160002060006101000a81548173ffffffffffffffffffffffffffffffffffffffff021916908373ffffffffffffffffffffffffffffffffffffffff160217905550808273ffffffffffffffffffffffffffffffffffffffff16610fef836107d2565b73ffffffffffffffffffffffffffffffffffffffff167f8c5be1e5ebec7d5bd14f71427d1e84f3dd0314c0f7b2291e5b200ac8c7c3b92560405160405180910390a45050565b8273ffffffffffffffffffffffffffffffffffffffff16611055826107d2565b73ffffffffffffffffffffffffffffffffffffffff16146110ab576040517f08c379a00000000000000000000000000000000000000000000000000000000081526004016110a290612ce4565b60405180910390fd5b600073ffffffffffffffffffffffffffffffffffffffff168273ffffffffffffffffffffffffffffffffffffffff160361111a576040517f08c379a000000000000000000000000000000000000000000000000000000000815260040161111190612d76565b60405180910390fd5b6111278383836001611b4b565b8273ffffffffffffffffffffffffffffffffffffffff16611147826107d2565b73ffffffffffffffffffffffffffffffffffffffff161461119d576040517f08c379a000000000000000000000000000000000000000000000000000000000815260040161119490612ce4565b60405180910390fd5b6004600082815260200190815260200160002060006101000a81549073ffffffffffffffffffffffffffffffffffffffff02191690556001600360008573ffffffffffffffffffffffffffffffffffffffff1673ffffffffffffffffffffffffffffffffffffffff168152602001908152602001600020600082825403925050819055506001600360008473ffffffffffffffffffffffffffffffffffffffff1673ffffffffffffffffffffffffffffffffffffffff16815260200190815260200160002060008282540192505081905550816002600083815260200190815260200160002060006101000a81548173ffffffffffffffffffffffffffffffffffffffff021916908373ffffffffffffffffffffffffffffffffffffffff160217905550808273ffffffffffffffffffffffffffffffffffffffff168473ffffffffffffffffffffffffffffffffffffffff167fddf252ad1be2c89b69c2b068fc378daa952ba7f163c4a11628f55a4df523b3ef60405160405180910390a46113298383836001611b51565b505050565b600860008473ffffffffffffffffffffffffffffffffffffffff1673ffffffffffffffffffffffffffffffffffffffff1681526020019081526020016000208190806001815401808255809150506001900390600052602060002001600090919091909150556000600860008473ffffffffffffffffffffffffffffffffffffffff1673ffffffffffffffffffffffffffffffffffffffff168152602001908152602001600020905060005b818054905081101561149857828282815481106113fa576113f9612d96565b5b90600052602060002001540361148557816001838054905061141c9190612df4565b8154811061142d5761142c612d96565b5b906000526020600020015482828154811061144b5761144a612d96565b5b90600052602060002001819055508180548061146a57611469612e28565b5b60019003818190600052602060002001600090559055611498565b808061149090612e57565b9150506113da565b5050505050565b600073ffffffffffffffffffffffffffffffffffffffff168273ffffffffffffffffffffffffffffffffffffffff160361150e576040517f08c379a000000000000000000000000000000000000000000000000000000000815260040161150590612eeb565b60405180910390fd5b61151781611b0a565b15611557576040517f08c379a000000000000000000000000000000000000000000000000000000000815260040161154e90612f57565b60405180910390fd5b611565600083836001611b4b565b61156e81611b0a565b156115ae576040517f08c379a00000000000000000000000000000000000000000000000000000000081526004016115a590612f57565b60405180910390fd5b6001600360008473ffffffffffffffffffffffffffffffffffffffff1673ffffffffffffffffffffffffffffffffffffffff16815260200190815260200160002060008282540192505081905550816002600083815260200190815260200160002060006101000a81548173ffffffffffffffffffffffffffffffffffffffff021916908373ffffffffffffffffffffffffffffffffffffffff160217905550808273ffffffffffffffffffffffffffffffffffffffff16600073ffffffffffffffffffffffffffffffffffffffff167fddf252ad1be2c89b69c2b068fc378daa952ba7f163c4a11628f55a4df523b3ef60405160405180910390a46116b8600083836001611b51565b5050565b6116c582611b0a565b611704576040517f08c379a00000000000000000000000000000000000000000000000000000000081526004016116fb90612fe9565b60405180910390fd5b8060066000848152602001908152602001600020908161172491906131b5565b507ff8e1a15aba9398e019f0b49df1a4fde98ee17ae345cb5f6b5e2c27f5033e8ce78260405161175491906123f0565b60405180910390a15050565b806009836040516117719190612b39565b9081526020016040518091039020819055505050565b60006002600083815260200190815260200160002060009054906101000a900473ffffffffffffffffffffffffffffffffffffffff169050919050565b8173ffffffffffffffffffffffffffffffffffffffff168373ffffffffffffffffffffffffffffffffffffffff1603611832576040517f08c379a0000000000000000000000000000000000000000000000000000000008152600401611829906132d3565b60405180910390fd5b80600560008573ffffffffffffffffffffffffffffffffffffffff1673ffffffffffffffffffffffffffffffffffffffff16815260200190815260200160002060008473ffffffffffffffffffffffffffffffffffffffff1673ffffffffffffffffffffffffffffffffffffffff16815260200190815260200160002060006101000a81548160ff0219169083151502179055508173ffffffffffffffffffffffffffffffffffffffff168373ffffffffffffffffffffffffffffffffffffffff167f17307eab39ab6107e8899845ad3d59bd9653f200f220920489ca2b5937696c31836040516119239190611fd6565b60405180910390a3505050565b60008061193c836107d2565b90508073ffffffffffffffffffffffffffffffffffffffff168473ffffffffffffffffffffffffffffffffffffffff16148061197e575061197d8185610db3565b5b806119bc57508373ffffffffffffffffffffffffffffffffffffffff166119a4846104ac565b73ffffffffffffffffffffffffffffffffffffffff16145b91505092915050565b6119d0848484611035565b6119dc84848484611b57565b611a1b576040517f08c379a0000000000000000000000000000000000000000000000000000000008152600401611a1290613365565b60405180910390fd5b50505050565b606060405180602001604052806000815250905090565b6060611a4382610f29565b6000611a4d611a21565b90506000815111611a6d5760405180602001604052806000815250611a98565b80611a7784611cde565b604051602001611a88929190612c4e565b6040516020818303038152906040525b915050919050565b60007f01ffc9a7000000000000000000000000000000000000000000000000000000007bffffffffffffffffffffffffffffffffffffffffffffffffffffffff1916827bffffffffffffffffffffffffffffffffffffffffffffffffffffffff1916149050919050565b60008073ffffffffffffffffffffffffffffffffffffffff16611b2c83611787565b73ffffffffffffffffffffffffffffffffffffffff1614159050919050565b50505050565b50505050565b6000611b788473ffffffffffffffffffffffffffffffffffffffff16611dac565b15611cd1578373ffffffffffffffffffffffffffffffffffffffff1663150b7a02611ba1610f74565b8786866040518563ffffffff1660e01b8152600401611bc394939291906133da565b6020604051808303816000875af1925050508015611bff57506040513d601f19601f82011682018060405250810190611bfc919061343b565b60015b611c81573d8060008114611c2f576040519150601f19603f3d011682016040523d82523d6000602084013e611c34565b606091505b506000815103611c79576040517f08c379a0000000000000000000000000000000000000000000000000000000008152600401611c7090613365565b60405180910390fd5b805181602001fd5b63150b7a0260e01b7bffffffffffffffffffffffffffffffffffffffffffffffffffffffff1916817bffffffffffffffffffffffffffffffffffffffffffffffffffffffff191614915050611cd6565b600190505b949350505050565b606060006001611ced84611dcf565b01905060008167ffffffffffffffff811115611d0c57611d0b61222b565b5b6040519080825280601f01601f191660200182016040528015611d3e5781602001600182028036833780820191505090505b509050600082602001820190505b600115611da1578080600190039150507f3031323334353637383961626364656600000000000000000000000000000000600a86061a8153600a8581611d9557611d94613468565b5b04945060008503611d4c575b819350505050919050565b6000808273ffffffffffffffffffffffffffffffffffffffff163b119050919050565b600080600090507a184f03e93ff9f4daa797ed6e38ed64bf6a1f0100000000000000008310611e2d577a184f03e93ff9f4daa797ed6e38ed64bf6a1f0100000000000000008381611e2357611e22613468565b5b0492506040810190505b6d04ee2d6d415b85acef81000000008310611e6a576d04ee2d6d415b85acef81000000008381611e6057611e5f613468565b5b0492506020810190505b662386f26fc100008310611e9957662386f26fc100008381611e8f57611e8e613468565b5b0492506010810190505b6305f5e1008310611ec2576305f5e1008381611eb857611eb7613468565b5b0492506008810190505b6127108310611ee7576127108381611edd57611edc613468565b5b0492506004810190505b60648310611f0a5760648381611f0057611eff613468565b5b0492506002810190505b600a8310611f19576001810190505b80915050919050565b6000604051905090565b600080fd5b600080fd5b60007fffffffff0000000000000000000000000000000000000000000000000000000082169050919050565b611f6b81611f36565b8114611f7657600080fd5b50565b600081359050611f8881611f62565b92915050565b600060208284031215611fa457611fa3611f2c565b5b6000611fb284828501611f79565b91505092915050565b60008115159050919050565b611fd081611fbb565b82525050565b6000602082019050611feb6000830184611fc7565b92915050565b600081519050919050565b600082825260208201905092915050565b60005b8381101561202b578082015181840152602081019050612010565b60008484015250505050565b6000601f19601f8301169050919050565b600061205382611ff1565b61205d8185611ffc565b935061206d81856020860161200d565b61207681612037565b840191505092915050565b6000602082019050818103600083015261209b8184612048565b905092915050565b6000819050919050565b6120b6816120a3565b81146120c157600080fd5b50565b6000813590506120d3816120ad565b92915050565b6000602082840312156120ef576120ee611f2c565b5b60006120fd848285016120c4565b91505092915050565b600073ffffffffffffffffffffffffffffffffffffffff82169050919050565b600061213182612106565b9050919050565b61214181612126565b82525050565b600060208201905061215c6000830184612138565b92915050565b61216b81612126565b811461217657600080fd5b50565b60008135905061218881612162565b92915050565b600080604083850312156121a5576121a4611f2c565b5b60006121b385828601612179565b92505060206121c4858286016120c4565b9150509250929050565b6000806000606084860312156121e7576121e6611f2c565b5b60006121f586828701612179565b935050602061220686828701612179565b9250506040612217868287016120c4565b9150509250925092565b600080fd5b600080fd5b7f4e487b7100000000000000000000000000000000000000000000000000000000600052604160045260246000fd5b61226382612037565b810181811067ffffffffffffffff821117156122825761228161222b565b5b80604052505050565b6000612295611f22565b90506122a1828261225a565b919050565b600067ffffffffffffffff8211156122c1576122c061222b565b5b6122ca82612037565b9050602081019050919050565b82818337600083830152505050565b60006122f96122f4846122a6565b61228b565b90508281526020810184848401111561231557612314612226565b5b6123208482856122d7565b509392505050565b600082601f83011261233d5761233c612221565b5b813561234d8482602086016122e6565b91505092915050565b60008060006060848603121561236f5761236e611f2c565b5b600084013567ffffffffffffffff81111561238d5761238c611f31565b5b61239986828701612328565b935050602084013567ffffffffffffffff8111156123ba576123b9611f31565b5b6123c686828701612328565b92505060406123d7868287016120c4565b9150509250925092565b6123ea816120a3565b82525050565b600060208201905061240560008301846123e1565b92915050565b60006020828403121561242157612420611f2c565b5b600061242f84828501612179565b91505092915050565b60008060006060848603121561245157612450611f2c565b5b600084013567ffffffffffffffff81111561246f5761246e611f31565b5b61247b86828701612328565b935050602061248c86828701612179565b925050604061249d868287016120c4565b9150509250925092565b600081519050919050565b600082825260208201905092915050565b6000819050602082019050919050565b6124dc816120a3565b82525050565b60006124ee83836124d3565b60208301905092915050565b6000602082019050919050565b6000612512826124a7565b61251c81856124b2565b9350612527836124c3565b8060005b8381101561255857815161253f88826124e2565b975061254a836124fa565b92505060018101905061252b565b5085935050505092915050565b6000602082019050818103600083015261257f8184612507565b905092915050565b61259081611fbb565b811461259b57600080fd5b50565b6000813590506125ad81612587565b92915050565b600080604083850312156125ca576125c9611f2c565b5b60006125d885828601612179565b92505060206125e98582860161259e565b9150509250929050565b600067ffffffffffffffff82111561260e5761260d61222b565b5b61261782612037565b9050602081019050919050565b6000612637612632846125f3565b61228b565b90508281526020810184848401111561265357612652612226565b5b61265e8482856122d7565b509392505050565b600082601f83011261267b5761267a612221565b5b813561268b848260208601612624565b91505092915050565b600080600080608085870312156126ae576126ad611f2c565b5b60006126bc87828801612179565b94505060206126cd87828801612179565b93505060406126de878288016120c4565b925050606085013567ffffffffffffffff8111156126ff576126fe611f31565b5b61270b87828801612666565b91505092959194509250565b6000806040838503121561272e5761272d611f2c565b5b600061273c85828601612179565b925050602061274d85828601612179565b9150509250929050565b7f4e487b7100000000000000000000000000000000000000000000000000000000600052602260045260246000fd5b6000600282049050600182168061279e57607f821691505b6020821081036127b1576127b0612757565b5b50919050565b7f4552433732313a20617070726f76616c20746f2063757272656e74206f776e6560008201527f7200000000000000000000000000000000000000000000000000000000000000602082015250565b6000612813602183611ffc565b915061281e826127b7565b604082019050919050565b6000602082019050818103600083015261284281612806565b9050919050565b7f4552433732313a20617070726f76652063616c6c6572206973206e6f7420746f60008201527f6b656e206f776e6572206f7220617070726f76656420666f7220616c6c000000602082015250565b60006128a5603d83611ffc565b91506128b082612849565b604082019050919050565b600060208201905081810360008301526128d481612898565b9050919050565b7f6365727469666963617465206d7573742062652072656465656d206f6e20706c60008201527f6174666f726d0000000000000000000000000000000000000000000000000000602082015250565b6000612937602683611ffc565b9150612942826128db565b604082019050919050565b600060208201905081810360008301526129668161292a565b9050919050565b7f596f7520646f206e6f7420686176652061636365737320746f2074686973206360008201527f6f6e747261637400000000000000000000000000000000000000000000000000602082015250565b60006129c9602783611ffc565b91506129d48261296d565b604082019050919050565b600060208201905081810360008301526129f8816129bc565b9050919050565b7f4552433732313a20696e76616c696420746f6b656e2049440000000000000000600082015250565b6000612a35601883611ffc565b9150612a40826129ff565b602082019050919050565b60006020820190508181036000830152612a6481612a28565b9050919050565b7f4552433732313a2061646472657373207a65726f206973206e6f74206120766160008201527f6c6964206f776e65720000000000000000000000000000000000000000000000602082015250565b6000612ac7602983611ffc565b9150612ad282612a6b565b604082019050919050565b60006020820190508181036000830152612af681612aba565b9050919050565b600081905092915050565b6000612b1382611ff1565b612b1d8185612afd565b9350612b2d81856020860161200d565b80840191505092915050565b6000612b458284612b08565b915081905092915050565b7f436f756c64206e6f742072656465656d20746f6b656e00000000000000000000600082015250565b6000612b86601683611ffc565b9150612b9182612b50565b602082019050919050565b60006020820190508181036000830152612bb581612b79565b9050919050565b7f4552433732313a2063616c6c6572206973206e6f7420746f6b656e206f776e6560008201527f72206f7220617070726f76656400000000000000000000000000000000000000602082015250565b6000612c18602d83611ffc565b9150612c2382612bbc565b604082019050919050565b60006020820190508181036000830152612c4781612c0b565b9050919050565b6000612c5a8285612b08565b9150612c668284612b08565b91508190509392505050565b7f4552433732313a207472616e736665722066726f6d20696e636f72726563742060008201527f6f776e6572000000000000000000000000000000000000000000000000000000602082015250565b6000612cce602583611ffc565b9150612cd982612c72565b604082019050919050565b60006020820190508181036000830152612cfd81612cc1565b9050919050565b7f4552433732313a207472616e7366657220746f20746865207a65726f2061646460008201527f7265737300000000000000000000000000000000000000000000000000000000602082015250565b6000612d60602483611ffc565b9150612d6b82612d04565b604082019050919050565b60006020820190508181036000830152612d8f81612d53565b9050919050565b7f4e487b7100000000000000000000000000000000000000000000000000000000600052603260045260246000fd5b7f4e487b7100000000000000000000000000000000000000000000000000000000600052601160045260246000fd5b6000612dff826120a3565b9150612e0a836120a3565b9250828203905081811115612e2257612e21612dc5565b5b92915050565b7f4e487b7100000000000000000000000000000000000000000000000000000000600052603160045260246000fd5b6000612e62826120a3565b91507fffffffffffffffffffffffffffffffffffffffffffffffffffffffffffffffff8203612e9457612e93612dc5565b5b600182019050919050565b7f4552433732313a206d696e7420746f20746865207a65726f2061646472657373600082015250565b6000612ed5602083611ffc565b9150612ee082612e9f565b602082019050919050565b60006020820190508181036000830152612f0481612ec8565b9050919050565b7f4552433732313a20746f6b656e20616c7265616479206d696e74656400000000600082015250565b6000612f41601c83611ffc565b9150612f4c82612f0b565b602082019050919050565b60006020820190508181036000830152612f7081612f34565b9050919050565b7f45524337323155524953746f726167653a2055524920736574206f66206e6f6e60008201527f6578697374656e7420746f6b656e000000000000000000000000000000000000602082015250565b6000612fd3602e83611ffc565b9150612fde82612f77565b604082019050919050565b6000602082019050818103600083015261300281612fc6565b9050919050565b60008190508160005260206000209050919050565b60006020601f8301049050919050565b600082821b905092915050565b60006008830261306b7fffffffffffffffffffffffffffffffffffffffffffffffffffffffffffffffff8261302e565b613075868361302e565b95508019841693508086168417925050509392505050565b6000819050919050565b60006130b26130ad6130a8846120a3565b61308d565b6120a3565b9050919050565b6000819050919050565b6130cc83613097565b6130e06130d8826130b9565b84845461303b565b825550505050565b600090565b6130f56130e8565b6131008184846130c3565b505050565b5b81811015613124576131196000826130ed565b600181019050613106565b5050565b601f8211156131695761313a81613009565b6131438461301e565b81016020851015613152578190505b61316661315e8561301e565b830182613105565b50505b505050565b600082821c905092915050565b600061318c6000198460080261316e565b1980831691505092915050565b60006131a5838361317b565b9150826002028217905092915050565b6131be82611ff1565b67ffffffffffffffff8111156131d7576131d661222b565b5b6131e18254612786565b6131ec828285613128565b600060209050601f83116001811461321f576000841561320d578287015190505b6132178582613199565b86555061327f565b601f19841661322d86613009565b60005b8281101561325557848901518255600182019150602085019450602081019050613230565b86831015613272578489015161326e601f89168261317b565b8355505b6001600288020188555050505b505050505050565b7f4552433732313a20617070726f766520746f2063616c6c657200000000000000600082015250565b60006132bd601983611ffc565b91506132c882613287565b602082019050919050565b600060208201905081810360008301526132ec816132b0565b9050919050565b7f4552433732313a207472616e7366657220746f206e6f6e20455243373231526560008201527f63656976657220696d706c656d656e7465720000000000000000000000000000602082015250565b600061334f603283611ffc565b915061335a826132f3565b604082019050919050565b6000602082019050818103600083015261337e81613342565b9050919050565b600081519050919050565b600082825260208201905092915050565b60006133ac82613385565b6133b68185613390565b93506133c681856020860161200d565b6133cf81612037565b840191505092915050565b60006080820190506133ef6000830187612138565b6133fc6020830186612138565b61340960408301856123e1565b818103606083015261341b81846133a1565b905095945050505050565b60008151905061343581611f62565b92915050565b60006020828403121561345157613450611f2c565b5b600061345f84828501613426565b91505092915050565b7f4e487b7100000000000000000000000000000000000000000000000000000000600052601260045260246000fdfea26469706673582212205eb06716e95207ccd9811c0f7149f9daff92de7e48c0427c4dc047ddb676294f64736f6c63430008130033",
  "linkReferences": {},
  "deployedLinkReferences": {}
}