{
  "_format": "hh-sol-artifact-1",
  "contractName": "Arturvers",
  "sourceName": "contracts/Arturverse.sol",
  "abi": [
    {
      "inputs": [],
      "stateMutability": "nonpayable",
      "type": "constructor"
    },
    {
      "anonymous": false,
      "inputs": [
        {
          "indexed": true,
          "internalType": "address",
          "name": "owner",
          "type": "address"
        },
        {
          "indexed": true,
          "internalType": "address",
          "name": "approved",
          "type": "address"
        },
        {
          "indexed": true,
          "internalType": "uint256",
          "name": "tokenId",
          "type": "uint256"
        }
      ],
      "name": "Approval",
      "type": "event"
    },
    {
      "anonymous": false,
      "inputs": [
        {
          "indexed": true,
          "internalType": "address",
          "name": "owner",
          "type": "address"
        },
        {
          "indexed": true,
          "internalType": "address",
          "name": "operator",
          "type": "address"
        },
        {
          "indexed": false,
          "internalType": "bool",
          "name": "approved",
          "type": "bool"
        }
      ],
      "name": "ApprovalForAll",
      "type": "event"
    },
    {
      "anonymous": false,
      "inputs": [
        {
          "indexed": false,
          "internalType": "uint256",
          "name": "_fromTokenId",
          "type": "uint256"
        },
        {
          "indexed": false,
          "internalType": "uint256",
          "name": "_toTokenId",
          "type": "uint256"
        }
      ],
      "name": "BatchMetadataUpdate",
      "type": "event"
    },
    {
      "anonymous": false,
      "inputs": [
        {
          "indexed": false,
          "internalType": "uint256",
          "name": "_tokenId",
          "type": "uint256"
        }
      ],
      "name": "MetadataUpdate",
      "type": "event"
    },
    {
      "anonymous": false,
      "inputs": [
        {
          "indexed": true,
          "internalType": "address",
          "name": "previousOwner",
          "type": "address"
        },
        {
          "indexed": true,
          "internalType": "address",
          "name": "currentOwner",
          "type": "address"
        }
      ],
      "name": "OwnerTransfer",
      "type": "event"
    },
    {
      "anonymous": false,
      "inputs": [
        {
          "indexed": true,
          "internalType": "address",
          "name": "from",
          "type": "address"
        },
        {
          "indexed": true,
          "internalType": "address",
          "name": "to",
          "type": "address"
        },
        {
          "indexed": true,
          "internalType": "uint256",
          "name": "tokenId",
          "type": "uint256"
        }
      ],
      "name": "Transfer",
      "type": "event"
    },
    {
      "inputs": [
        {
          "internalType": "address",
          "name": "from",
          "type": "address"
        },
        {
          "internalType": "address",
          "name": "to",
          "type": "address"
        },
        {
          "internalType": "uint256",
          "name": "tokenId",
          "type": "uint256"
        }
      ],
      "name": "_transferFrom",
      "outputs": [],
      "stateMutability": "nonpayable",
      "type": "function"
    },
    {
      "inputs": [
        {
          "internalType": "address",
          "name": "to",
          "type": "address"
        },
        {
          "internalType": "uint256",
          "name": "tokenId",
          "type": "uint256"
        }
      ],
      "name": "approve",
      "outputs": [],
      "stateMutability": "nonpayable",
      "type": "function"
    },
    {
      "inputs": [
        {
          "internalType": "address",
          "name": "owner",
          "type": "address"
        }
      ],
      "name": "balanceOf",
      "outputs": [
        {
          "internalType": "uint256",
          "name": "",
          "type": "uint256"
        }
      ],
      "stateMutability": "view",
      "type": "function"
    },
    {
      "inputs": [
        {
          "internalType": "address",
          "name": "newOwner",
          "type": "address"
        }
      ],
      "name": "changeOwner",
      "outputs": [],
      "stateMutability": "nonpayable",
      "type": "function"
    },
    {
      "inputs": [
        {
          "internalType": "uint256",
          "name": "tokenId",
          "type": "uint256"
        }
      ],
      "name": "getApproved",
      "outputs": [
        {
          "internalType": "address",
          "name": "",
          "type": "address"
        }
      ],
      "stateMutability": "view",
      "type": "function"
    },
    {
      "inputs": [
        {
          "internalType": "address",
          "name": "user",
          "type": "address"
        }
      ],
      "name": "getAssets",
      "outputs": [
        {
          "internalType": "uint256[]",
          "name": "",
          "type": "uint256[]"
        }
      ],
      "stateMutability": "view",
      "type": "function"
    },
    {
      "inputs": [
        {
          "internalType": "address",
          "name": "owner",
          "type": "address"
        },
        {
          "internalType": "address",
          "name": "operator",
          "type": "address"
        }
      ],
      "name": "isApprovedForAll",
      "outputs": [
        {
          "internalType": "bool",
          "name": "",
          "type": "bool"
        }
      ],
      "stateMutability": "view",
      "type": "function"
    },
    {
      "inputs": [
        {
          "internalType": "address",
          "name": "user",
          "type": "address"
        },
        {
          "internalType": "string",
          "name": "tokenURI",
          "type": "string"
        },
        {
          "internalType": "uint256",
          "name": "itemId",
          "type": "uint256"
        }
      ],
      "name": "mintCertificate",
      "outputs": [
        {
          "internalType": "uint256",
          "name": "",
          "type": "uint256"
        }
      ],
      "stateMutability": "nonpayable",
      "type": "function"
    },
    {
      "inputs": [],
      "name": "name",
      "outputs": [
        {
          "internalType": "string",
          "name": "",
          "type": "string"
        }
      ],
      "stateMutability": "view",
      "type": "function"
    },
    {
      "inputs": [],
      "name": "owner",
      "outputs": [
        {
          "internalType": "address",
          "name": "",
          "type": "address"
        }
      ],
      "stateMutability": "view",
      "type": "function"
    },
    {
      "inputs": [
        {
          "internalType": "uint256",
          "name": "tokenId",
          "type": "uint256"
        }
      ],
      "name": "ownerOf",
      "outputs": [
        {
          "internalType": "address",
          "name": "",
          "type": "address"
        }
      ],
      "stateMutability": "view",
      "type": "function"
    },
    {
      "inputs": [
        {
          "internalType": "address",
          "name": "from",
          "type": "address"
        },
        {
          "internalType": "address",
          "name": "to",
          "type": "address"
        },
        {
          "internalType": "uint256",
          "name": "tokenId",
          "type": "uint256"
        }
      ],
      "name": "safeTransferFrom",
      "outputs": [],
      "stateMutability": "nonpayable",
      "type": "function"
    },
    {
      "inputs": [
        {
          "internalType": "address",
          "name": "from",
          "type": "address"
        },
        {
          "internalType": "address",
          "name": "to",
          "type": "address"
        },
        {
          "internalType": "uint256",
          "name": "tokenId",
          "type": "uint256"
        },
        {
          "internalType": "bytes",
          "name": "data",
          "type": "bytes"
        }
      ],
      "name": "safeTransferFrom",
      "outputs": [],
      "stateMutability": "nonpayable",
      "type": "function"
    },
    {
      "inputs": [
        {
          "internalType": "address",
          "name": "operator",
          "type": "address"
        },
        {
          "internalType": "bool",
          "name": "approved",
          "type": "bool"
        }
      ],
      "name": "setApprovalForAll",
      "outputs": [],
      "stateMutability": "nonpayable",
      "type": "function"
    },
    {
      "inputs": [
        {
          "internalType": "bytes4",
          "name": "interfaceId",
          "type": "bytes4"
        }
      ],
      "name": "supportsInterface",
      "outputs": [
        {
          "internalType": "bool",
          "name": "",
          "type": "bool"
        }
      ],
      "stateMutability": "view",
      "type": "function"
    },
    {
      "inputs": [],
      "name": "symbol",
      "outputs": [
        {
          "internalType": "string",
          "name": "",
          "type": "string"
        }
      ],
      "stateMutability": "view",
      "type": "function"
    },
    {
      "inputs": [
        {
          "internalType": "uint256",
          "name": "tokenId",
          "type": "uint256"
        }
      ],
      "name": "tokenURI",
      "outputs": [
        {
          "internalType": "string",
          "name": "",
          "type": "string"
        }
      ],
      "stateMutability": "view",
      "type": "function"
    },
    {
      "inputs": [
        {
          "internalType": "address",
          "name": "from",
          "type": "address"
        },
        {
          "internalType": "address",
          "name": "to",
          "type": "address"
        },
        {
          "internalType": "uint256",
          "name": "tokenId",
          "type": "uint256"
        }
      ],
      "name": "transferFrom",
      "outputs": [],
      "stateMutability": "nonpayable",
      "type": "function"
    }
  ],
  "bytecode": "0x60806040523480156200001157600080fd5b506040518060400160405280600a81526020017f41727475727665727365000000000000000000000000000000000000000000008152506040518060400160405280600381526020017f415456000000000000000000000000000000000000000000000000000000000081525081600090816200008f9190620003e2565b508060019081620000a19190620003e2565b50505033600760006101000a81548173ffffffffffffffffffffffffffffffffffffffff021916908373ffffffffffffffffffffffffffffffffffffffff160217905550600760009054906101000a900473ffffffffffffffffffffffffffffffffffffffff1673ffffffffffffffffffffffffffffffffffffffff16600073ffffffffffffffffffffffffffffffffffffffff167f5327f96e1b66776c2f90adb141c8f65efa8dd259adb405009213276527cbf69a60405160405180910390a3620004c9565b600081519050919050565b7f4e487b7100000000000000000000000000000000000000000000000000000000600052604160045260246000fd5b7f4e487b7100000000000000000000000000000000000000000000000000000000600052602260045260246000fd5b60006002820490506001821680620001ea57607f821691505b6020821081036200020057620001ff620001a2565b5b50919050565b60008190508160005260206000209050919050565b60006020601f8301049050919050565b600082821b905092915050565b6000600883026200026a7fffffffffffffffffffffffffffffffffffffffffffffffffffffffffffffffff826200022b565b6200027686836200022b565b95508019841693508086168417925050509392505050565b6000819050919050565b6000819050919050565b6000620002c3620002bd620002b7846200028e565b62000298565b6200028e565b9050919050565b6000819050919050565b620002df83620002a2565b620002f7620002ee82620002ca565b84845462000238565b825550505050565b600090565b6200030e620002ff565b6200031b818484620002d4565b505050565b5b8181101562000343576200033760008262000304565b60018101905062000321565b5050565b601f82111562000392576200035c8162000206565b62000367846200021b565b8101602085101562000377578190505b6200038f62000386856200021b565b83018262000320565b50505b505050565b600082821c905092915050565b6000620003b76000198460080262000397565b1980831691505092915050565b6000620003d28383620003a4565b9150826002028217905092915050565b620003ed8262000168565b67ffffffffffffffff81111562000409576200040862000173565b5b620004158254620001d1565b6200042282828562000347565b600060209050601f8311600181146200045a576000841562000445578287015190505b620004518582620003c4565b865550620004c1565b601f1984166200046a8662000206565b60005b8281101562000494578489015182556001820191506020850194506020810190506200046d565b86831015620004b45784890151620004b0601f891682620003a4565b8355505b6001600288020188555050505b505050505050565b61336980620004d96000396000f3fe608060405234801561001057600080fd5b50600436106101165760003560e01c80638da5cb5b116100a2578063b88d4fde11610071578063b88d4fde146102f1578063c87b56dd1461030d578063cb064ddf1461033d578063cb7125351461036d578063e985e9c51461038957610116565b80638da5cb5b1461027d57806395d89b411461029b578063a22cb465146102b9578063a6f9dae1146102d557610116565b806323b872dd116100e957806323b872dd146101b557806342842e0e146101d15780636352211e146101ed57806370a082311461021d578063742978da1461024d57610116565b806301ffc9a71461011b57806306fdde031461014b578063081812fc14610169578063095ea7b314610199575b600080fd5b61013560048036038101906101309190611fca565b6103b9565b6040516101429190612012565b60405180910390f35b61015361041a565b60405161016091906120bd565b60405180910390f35b610183600480360381019061017e9190612115565b6104ac565b6040516101909190612183565b60405180910390f35b6101b360048036038101906101ae91906121ca565b6104f2565b005b6101cf60048036038101906101ca919061220a565b610609565b005b6101eb60048036038101906101e6919061220a565b610669565b005b61020760048036038101906102029190612115565b610689565b6040516102149190612183565b60405180910390f35b6102376004803603810190610232919061225d565b61070f565b6040516102449190612299565b60405180910390f35b6102676004803603810190610262919061225d565b6107c6565b6040516102749190612372565b60405180910390f35b6102856108b3565b6040516102929190612183565b60405180910390f35b6102a36108d9565b6040516102b091906120bd565b60405180910390f35b6102d360048036038101906102ce91906123c0565b61096b565b005b6102ef60048036038101906102ea919061225d565b610981565b005b61030b60048036038101906103069190612535565b610ad1565b005b61032760048036038101906103229190612115565b610b33565b60405161033491906120bd565b60405180910390f35b61035760048036038101906103529190612659565b610c45565b6040516103649190612299565b60405180910390f35b6103876004803603810190610382919061220a565b610db3565b005b6103a3600480360381019061039e91906126c8565b610f87565b6040516103b09190612012565b60405180910390f35b6000634906490660e01b7bffffffffffffffffffffffffffffffffffffffffffffffffffffffff1916827bffffffffffffffffffffffffffffffffffffffffffffffffffffffff1916148061041357506104128261101b565b5b9050919050565b60606000805461042990612737565b80601f016020809104026020016040519081016040528092919081815260200182805461045590612737565b80156104a25780601f10610477576101008083540402835291602001916104a2565b820191906000526020600020905b81548152906001019060200180831161048557829003601f168201915b5050505050905090565b60006104b7826110fd565b6004600083815260200190815260200160002060009054906101000a900473ffffffffffffffffffffffffffffffffffffffff169050919050565b60006104fd82610689565b90508073ffffffffffffffffffffffffffffffffffffffff168373ffffffffffffffffffffffffffffffffffffffff160361056d576040517f08c379a0000000000000000000000000000000000000000000000000000000008152600401610564906127da565b60405180910390fd5b8073ffffffffffffffffffffffffffffffffffffffff1661058c611148565b73ffffffffffffffffffffffffffffffffffffffff1614806105bb57506105ba816105b5611148565b610f87565b5b6105fa576040517f08c379a00000000000000000000000000000000000000000000000000000000081526004016105f19061286c565b60405180910390fd5b6106048383611150565b505050565b61061a610614611148565b82611209565b610659576040517f08c379a0000000000000000000000000000000000000000000000000000000008152600401610650906128fe565b60405180910390fd5b61066483838361129e565b505050565b61068483838360405180602001604052806000815250610ad1565b505050565b60008061069583611597565b9050600073ffffffffffffffffffffffffffffffffffffffff168173ffffffffffffffffffffffffffffffffffffffff1603610706576040517f08c379a00000000000000000000000000000000000000000000000000000000081526004016106fd9061296a565b60405180910390fd5b80915050919050565b60008073ffffffffffffffffffffffffffffffffffffffff168273ffffffffffffffffffffffffffffffffffffffff160361077f576040517f08c379a0000000000000000000000000000000000000000000000000000000008152600401610776906129fc565b60405180910390fd5b600360008373ffffffffffffffffffffffffffffffffffffffff1673ffffffffffffffffffffffffffffffffffffffff168152602001908152602001600020549050919050565b6060600960008373ffffffffffffffffffffffffffffffffffffffff1673ffffffffffffffffffffffffffffffffffffffff16815260200190815260200160002060009054906101000a900460ff1661081e57600080fd5b600860008373ffffffffffffffffffffffffffffffffffffffff1673ffffffffffffffffffffffffffffffffffffffff1681526020019081526020016000208054806020026020016040519081016040528092919081815260200182805480156108a757602002820191906000526020600020905b815481526020019060010190808311610893575b50505050509050919050565b600760009054906101000a900473ffffffffffffffffffffffffffffffffffffffff1681565b6060600180546108e890612737565b80601f016020809104026020016040519081016040528092919081815260200182805461091490612737565b80156109615780601f1061093657610100808354040283529160200191610961565b820191906000526020600020905b81548152906001019060200180831161094457829003601f168201915b5050505050905090565b61097d610976611148565b83836115d4565b5050565b3373ffffffffffffffffffffffffffffffffffffffff16600760009054906101000a900473ffffffffffffffffffffffffffffffffffffffff1673ffffffffffffffffffffffffffffffffffffffff1614610a11576040517f08c379a0000000000000000000000000000000000000000000000000000000008152600401610a0890612a8e565b60405180910390fd5b8073ffffffffffffffffffffffffffffffffffffffff16600760009054906101000a900473ffffffffffffffffffffffffffffffffffffffff1673ffffffffffffffffffffffffffffffffffffffff167f5327f96e1b66776c2f90adb141c8f65efa8dd259adb405009213276527cbf69a60405160405180910390a380600760006101000a81548173ffffffffffffffffffffffffffffffffffffffff021916908373ffffffffffffffffffffffffffffffffffffffff16021790555050565b610ae2610adc611148565b83611209565b610b21576040517f08c379a0000000000000000000000000000000000000000000000000000000008152600401610b18906128fe565b60405180910390fd5b610b2d84848484611740565b50505050565b6060610b3e826110fd565b6000600660008481526020019081526020016000208054610b5e90612737565b80601f0160208091040260200160405190810160405280929190818152602001828054610b8a90612737565b8015610bd75780601f10610bac57610100808354040283529160200191610bd7565b820191906000526020600020905b815481529060010190602001808311610bba57829003601f168201915b505050505090506000610be861179c565b90506000815103610bfd578192505050610c40565b600082511115610c32578082604051602001610c1a929190612aea565b60405160208183030381529060405292505050610c40565b610c3b846117b3565b925050505b919050565b60003373ffffffffffffffffffffffffffffffffffffffff16600760009054906101000a900473ffffffffffffffffffffffffffffffffffffffff1673ffffffffffffffffffffffffffffffffffffffff1614610cd7576040517f08c379a0000000000000000000000000000000000000000000000000000000008152600401610cce90612a8e565b60405180910390fd5b610ce1848361181b565b610ceb8284611a38565b600860008573ffffffffffffffffffffffffffffffffffffffff1673ffffffffffffffffffffffffffffffffffffffff1681526020019081526020016000208290806001815401808255809150506001900390600052602060002001600090919091909150556001600960008673ffffffffffffffffffffffffffffffffffffffff1673ffffffffffffffffffffffffffffffffffffffff16815260200190815260200160002060006101000a81548160ff0219169083151502179055508190509392505050565b610dbe838383610609565b600860008373ffffffffffffffffffffffffffffffffffffffff1673ffffffffffffffffffffffffffffffffffffffff1681526020019081526020016000208190806001815401808255809150506001900390600052602060002001600090919091909150556001600960008473ffffffffffffffffffffffffffffffffffffffff1673ffffffffffffffffffffffffffffffffffffffff16815260200190815260200160002060006101000a81548160ff0219169083151502179055506000600860008573ffffffffffffffffffffffffffffffffffffffff1673ffffffffffffffffffffffffffffffffffffffff168152602001908152602001600020905060005b8180549050811015610f805782828281548110610ee257610ee1612b0e565b5b906000526020600020015403610f6d578160018380549050610f049190612b6c565b81548110610f1557610f14612b0e565b5b9060005260206000200154828281548110610f3357610f32612b0e565b5b906000526020600020018190555081805480610f5257610f51612ba0565b5b60019003818190600052602060002001600090559055610f80565b8080610f7890612bcf565b915050610ec2565b5050505050565b6000600560008473ffffffffffffffffffffffffffffffffffffffff1673ffffffffffffffffffffffffffffffffffffffff16815260200190815260200160002060008373ffffffffffffffffffffffffffffffffffffffff1673ffffffffffffffffffffffffffffffffffffffff16815260200190815260200160002060009054906101000a900460ff16905092915050565b60007f80ac58cd000000000000000000000000000000000000000000000000000000007bffffffffffffffffffffffffffffffffffffffffffffffffffffffff1916827bffffffffffffffffffffffffffffffffffffffffffffffffffffffff191614806110e657507f5b5e139f000000000000000000000000000000000000000000000000000000007bffffffffffffffffffffffffffffffffffffffffffffffffffffffff1916827bffffffffffffffffffffffffffffffffffffffffffffffffffffffff1916145b806110f657506110f582611adc565b5b9050919050565b61110681611b46565b611145576040517f08c379a000000000000000000000000000000000000000000000000000000000815260040161113c9061296a565b60405180910390fd5b50565b600033905090565b816004600083815260200190815260200160002060006101000a81548173ffffffffffffffffffffffffffffffffffffffff021916908373ffffffffffffffffffffffffffffffffffffffff160217905550808273ffffffffffffffffffffffffffffffffffffffff166111c383610689565b73ffffffffffffffffffffffffffffffffffffffff167f8c5be1e5ebec7d5bd14f71427d1e84f3dd0314c0f7b2291e5b200ac8c7c3b92560405160405180910390a45050565b60008061121583610689565b90508073ffffffffffffffffffffffffffffffffffffffff168473ffffffffffffffffffffffffffffffffffffffff16148061125757506112568185610f87565b5b8061129557508373ffffffffffffffffffffffffffffffffffffffff1661127d846104ac565b73ffffffffffffffffffffffffffffffffffffffff16145b91505092915050565b8273ffffffffffffffffffffffffffffffffffffffff166112be82610689565b73ffffffffffffffffffffffffffffffffffffffff1614611314576040517f08c379a000000000000000000000000000000000000000000000000000000000815260040161130b90612c89565b60405180910390fd5b600073ffffffffffffffffffffffffffffffffffffffff168273ffffffffffffffffffffffffffffffffffffffff1603611383576040517f08c379a000000000000000000000000000000000000000000000000000000000815260040161137a90612d1b565b60405180910390fd5b6113908383836001611b87565b8273ffffffffffffffffffffffffffffffffffffffff166113b082610689565b73ffffffffffffffffffffffffffffffffffffffff1614611406576040517f08c379a00000000000000000000000000000000000000000000000000000000081526004016113fd90612c89565b60405180910390fd5b6004600082815260200190815260200160002060006101000a81549073ffffffffffffffffffffffffffffffffffffffff02191690556001600360008573ffffffffffffffffffffffffffffffffffffffff1673ffffffffffffffffffffffffffffffffffffffff168152602001908152602001600020600082825403925050819055506001600360008473ffffffffffffffffffffffffffffffffffffffff1673ffffffffffffffffffffffffffffffffffffffff16815260200190815260200160002060008282540192505081905550816002600083815260200190815260200160002060006101000a81548173ffffffffffffffffffffffffffffffffffffffff021916908373ffffffffffffffffffffffffffffffffffffffff160217905550808273ffffffffffffffffffffffffffffffffffffffff168473ffffffffffffffffffffffffffffffffffffffff167fddf252ad1be2c89b69c2b068fc378daa952ba7f163c4a11628f55a4df523b3ef60405160405180910390a46115928383836001611b8d565b505050565b60006002600083815260200190815260200160002060009054906101000a900473ffffffffffffffffffffffffffffffffffffffff169050919050565b8173ffffffffffffffffffffffffffffffffffffffff168373ffffffffffffffffffffffffffffffffffffffff1603611642576040517f08c379a000000000000000000000000000000000000000000000000000000000815260040161163990612d87565b60405180910390fd5b80600560008573ffffffffffffffffffffffffffffffffffffffff1673ffffffffffffffffffffffffffffffffffffffff16815260200190815260200160002060008473ffffffffffffffffffffffffffffffffffffffff1673ffffffffffffffffffffffffffffffffffffffff16815260200190815260200160002060006101000a81548160ff0219169083151502179055508173ffffffffffffffffffffffffffffffffffffffff168373ffffffffffffffffffffffffffffffffffffffff167f17307eab39ab6107e8899845ad3d59bd9653f200f220920489ca2b5937696c31836040516117339190612012565b60405180910390a3505050565b61174b84848461129e565b61175784848484611b93565b611796576040517f08c379a000000000000000000000000000000000000000000000000000000000815260040161178d90612e19565b60405180910390fd5b50505050565b606060405180602001604052806000815250905090565b60606117be826110fd565b60006117c861179c565b905060008151116117e85760405180602001604052806000815250611813565b806117f284611d1a565b604051602001611803929190612aea565b6040516020818303038152906040525b915050919050565b600073ffffffffffffffffffffffffffffffffffffffff168273ffffffffffffffffffffffffffffffffffffffff160361188a576040517f08c379a000000000000000000000000000000000000000000000000000000000815260040161188190612e85565b60405180910390fd5b61189381611b46565b156118d3576040517f08c379a00000000000000000000000000000000000000000000000000000000081526004016118ca90612ef1565b60405180910390fd5b6118e1600083836001611b87565b6118ea81611b46565b1561192a576040517f08c379a000000000000000000000000000000000000000000000000000000000815260040161192190612ef1565b60405180910390fd5b6001600360008473ffffffffffffffffffffffffffffffffffffffff1673ffffffffffffffffffffffffffffffffffffffff16815260200190815260200160002060008282540192505081905550816002600083815260200190815260200160002060006101000a81548173ffffffffffffffffffffffffffffffffffffffff021916908373ffffffffffffffffffffffffffffffffffffffff160217905550808273ffffffffffffffffffffffffffffffffffffffff16600073ffffffffffffffffffffffffffffffffffffffff167fddf252ad1be2c89b69c2b068fc378daa952ba7f163c4a11628f55a4df523b3ef60405160405180910390a4611a34600083836001611b8d565b5050565b611a4182611b46565b611a80576040517f08c379a0000000000000000000000000000000000000000000000000000000008152600401611a7790612f83565b60405180910390fd5b80600660008481526020019081526020016000209081611aa0919061314f565b507ff8e1a15aba9398e019f0b49df1a4fde98ee17ae345cb5f6b5e2c27f5033e8ce782604051611ad09190612299565b60405180910390a15050565b60007f01ffc9a7000000000000000000000000000000000000000000000000000000007bffffffffffffffffffffffffffffffffffffffffffffffffffffffff1916827bffffffffffffffffffffffffffffffffffffffffffffffffffffffff1916149050919050565b60008073ffffffffffffffffffffffffffffffffffffffff16611b6883611597565b73ffffffffffffffffffffffffffffffffffffffff1614159050919050565b50505050565b50505050565b6000611bb48473ffffffffffffffffffffffffffffffffffffffff16611de8565b15611d0d578373ffffffffffffffffffffffffffffffffffffffff1663150b7a02611bdd611148565b8786866040518563ffffffff1660e01b8152600401611bff9493929190613276565b6020604051808303816000875af1925050508015611c3b57506040513d601f19601f82011682018060405250810190611c3891906132d7565b60015b611cbd573d8060008114611c6b576040519150601f19603f3d011682016040523d82523d6000602084013e611c70565b606091505b506000815103611cb5576040517f08c379a0000000000000000000000000000000000000000000000000000000008152600401611cac90612e19565b60405180910390fd5b805181602001fd5b63150b7a0260e01b7bffffffffffffffffffffffffffffffffffffffffffffffffffffffff1916817bffffffffffffffffffffffffffffffffffffffffffffffffffffffff191614915050611d12565b600190505b949350505050565b606060006001611d2984611e0b565b01905060008167ffffffffffffffff811115611d4857611d4761240a565b5b6040519080825280601f01601f191660200182016040528015611d7a5781602001600182028036833780820191505090505b509050600082602001820190505b600115611ddd578080600190039150507f3031323334353637383961626364656600000000000000000000000000000000600a86061a8153600a8581611dd157611dd0613304565b5b04945060008503611d88575b819350505050919050565b6000808273ffffffffffffffffffffffffffffffffffffffff163b119050919050565b600080600090507a184f03e93ff9f4daa797ed6e38ed64bf6a1f0100000000000000008310611e69577a184f03e93ff9f4daa797ed6e38ed64bf6a1f0100000000000000008381611e5f57611e5e613304565b5b0492506040810190505b6d04ee2d6d415b85acef81000000008310611ea6576d04ee2d6d415b85acef81000000008381611e9c57611e9b613304565b5b0492506020810190505b662386f26fc100008310611ed557662386f26fc100008381611ecb57611eca613304565b5b0492506010810190505b6305f5e1008310611efe576305f5e1008381611ef457611ef3613304565b5b0492506008810190505b6127108310611f23576127108381611f1957611f18613304565b5b0492506004810190505b60648310611f465760648381611f3c57611f3b613304565b5b0492506002810190505b600a8310611f55576001810190505b80915050919050565b6000604051905090565b600080fd5b600080fd5b60007fffffffff0000000000000000000000000000000000000000000000000000000082169050919050565b611fa781611f72565b8114611fb257600080fd5b50565b600081359050611fc481611f9e565b92915050565b600060208284031215611fe057611fdf611f68565b5b6000611fee84828501611fb5565b91505092915050565b60008115159050919050565b61200c81611ff7565b82525050565b60006020820190506120276000830184612003565b92915050565b600081519050919050565b600082825260208201905092915050565b60005b8381101561206757808201518184015260208101905061204c565b60008484015250505050565b6000601f19601f8301169050919050565b600061208f8261202d565b6120998185612038565b93506120a9818560208601612049565b6120b281612073565b840191505092915050565b600060208201905081810360008301526120d78184612084565b905092915050565b6000819050919050565b6120f2816120df565b81146120fd57600080fd5b50565b60008135905061210f816120e9565b92915050565b60006020828403121561212b5761212a611f68565b5b600061213984828501612100565b91505092915050565b600073ffffffffffffffffffffffffffffffffffffffff82169050919050565b600061216d82612142565b9050919050565b61217d81612162565b82525050565b60006020820190506121986000830184612174565b92915050565b6121a781612162565b81146121b257600080fd5b50565b6000813590506121c48161219e565b92915050565b600080604083850312156121e1576121e0611f68565b5b60006121ef858286016121b5565b925050602061220085828601612100565b9150509250929050565b60008060006060848603121561222357612222611f68565b5b6000612231868287016121b5565b9350506020612242868287016121b5565b925050604061225386828701612100565b9150509250925092565b60006020828403121561227357612272611f68565b5b6000612281848285016121b5565b91505092915050565b612293816120df565b82525050565b60006020820190506122ae600083018461228a565b92915050565b600081519050919050565b600082825260208201905092915050565b6000819050602082019050919050565b6122e9816120df565b82525050565b60006122fb83836122e0565b60208301905092915050565b6000602082019050919050565b600061231f826122b4565b61232981856122bf565b9350612334836122d0565b8060005b8381101561236557815161234c88826122ef565b975061235783612307565b925050600181019050612338565b5085935050505092915050565b6000602082019050818103600083015261238c8184612314565b905092915050565b61239d81611ff7565b81146123a857600080fd5b50565b6000813590506123ba81612394565b92915050565b600080604083850312156123d7576123d6611f68565b5b60006123e5858286016121b5565b92505060206123f6858286016123ab565b9150509250929050565b600080fd5b600080fd5b7f4e487b7100000000000000000000000000000000000000000000000000000000600052604160045260246000fd5b61244282612073565b810181811067ffffffffffffffff821117156124615761246061240a565b5b80604052505050565b6000612474611f5e565b90506124808282612439565b919050565b600067ffffffffffffffff8211156124a05761249f61240a565b5b6124a982612073565b9050602081019050919050565b82818337600083830152505050565b60006124d86124d384612485565b61246a565b9050828152602081018484840111156124f4576124f3612405565b5b6124ff8482856124b6565b509392505050565b600082601f83011261251c5761251b612400565b5b813561252c8482602086016124c5565b91505092915050565b6000806000806080858703121561254f5761254e611f68565b5b600061255d878288016121b5565b945050602061256e878288016121b5565b935050604061257f87828801612100565b925050606085013567ffffffffffffffff8111156125a05761259f611f6d565b5b6125ac87828801612507565b91505092959194509250565b600067ffffffffffffffff8211156125d3576125d261240a565b5b6125dc82612073565b9050602081019050919050565b60006125fc6125f7846125b8565b61246a565b90508281526020810184848401111561261857612617612405565b5b6126238482856124b6565b509392505050565b600082601f8301126126405761263f612400565b5b81356126508482602086016125e9565b91505092915050565b60008060006060848603121561267257612671611f68565b5b6000612680868287016121b5565b935050602084013567ffffffffffffffff8111156126a1576126a0611f6d565b5b6126ad8682870161262b565b92505060406126be86828701612100565b9150509250925092565b600080604083850312156126df576126de611f68565b5b60006126ed858286016121b5565b92505060206126fe858286016121b5565b9150509250929050565b7f4e487b7100000000000000000000000000000000000000000000000000000000600052602260045260246000fd5b6000600282049050600182168061274f57607f821691505b60208210810361276257612761612708565b5b50919050565b7f4552433732313a20617070726f76616c20746f2063757272656e74206f776e6560008201527f7200000000000000000000000000000000000000000000000000000000000000602082015250565b60006127c4602183612038565b91506127cf82612768565b604082019050919050565b600060208201905081810360008301526127f3816127b7565b9050919050565b7f4552433732313a20617070726f76652063616c6c6572206973206e6f7420746f60008201527f6b656e206f776e6572206f7220617070726f76656420666f7220616c6c000000602082015250565b6000612856603d83612038565b9150612861826127fa565b604082019050919050565b6000602082019050818103600083015261288581612849565b9050919050565b7f4552433732313a2063616c6c6572206973206e6f7420746f6b656e206f776e6560008201527f72206f7220617070726f76656400000000000000000000000000000000000000602082015250565b60006128e8602d83612038565b91506128f38261288c565b604082019050919050565b60006020820190508181036000830152612917816128db565b9050919050565b7f4552433732313a20696e76616c696420746f6b656e2049440000000000000000600082015250565b6000612954601883612038565b915061295f8261291e565b602082019050919050565b6000602082019050818103600083015261298381612947565b9050919050565b7f4552433732313a2061646472657373207a65726f206973206e6f74206120766160008201527f6c6964206f776e65720000000000000000000000000000000000000000000000602082015250565b60006129e6602983612038565b91506129f18261298a565b604082019050919050565b60006020820190508181036000830152612a15816129d9565b9050919050565b7f596f7520646f206e6f7420686176652061636365737320746f2074686973206360008201527f6f6e747261637400000000000000000000000000000000000000000000000000602082015250565b6000612a78602783612038565b9150612a8382612a1c565b604082019050919050565b60006020820190508181036000830152612aa781612a6b565b9050919050565b600081905092915050565b6000612ac48261202d565b612ace8185612aae565b9350612ade818560208601612049565b80840191505092915050565b6000612af68285612ab9565b9150612b028284612ab9565b91508190509392505050565b7f4e487b7100000000000000000000000000000000000000000000000000000000600052603260045260246000fd5b7f4e487b7100000000000000000000000000000000000000000000000000000000600052601160045260246000fd5b6000612b77826120df565b9150612b82836120df565b9250828203905081811115612b9a57612b99612b3d565b5b92915050565b7f4e487b7100000000000000000000000000000000000000000000000000000000600052603160045260246000fd5b6000612bda826120df565b91507fffffffffffffffffffffffffffffffffffffffffffffffffffffffffffffffff8203612c0c57612c0b612b3d565b5b600182019050919050565b7f4552433732313a207472616e736665722066726f6d20696e636f72726563742060008201527f6f776e6572000000000000000000000000000000000000000000000000000000602082015250565b6000612c73602583612038565b9150612c7e82612c17565b604082019050919050565b60006020820190508181036000830152612ca281612c66565b9050919050565b7f4552433732313a207472616e7366657220746f20746865207a65726f2061646460008201527f7265737300000000000000000000000000000000000000000000000000000000602082015250565b6000612d05602483612038565b9150612d1082612ca9565b604082019050919050565b60006020820190508181036000830152612d3481612cf8565b9050919050565b7f4552433732313a20617070726f766520746f2063616c6c657200000000000000600082015250565b6000612d71601983612038565b9150612d7c82612d3b565b602082019050919050565b60006020820190508181036000830152612da081612d64565b9050919050565b7f4552433732313a207472616e7366657220746f206e6f6e20455243373231526560008201527f63656976657220696d706c656d656e7465720000000000000000000000000000602082015250565b6000612e03603283612038565b9150612e0e82612da7565b604082019050919050565b60006020820190508181036000830152612e3281612df6565b9050919050565b7f4552433732313a206d696e7420746f20746865207a65726f2061646472657373600082015250565b6000612e6f602083612038565b9150612e7a82612e39565b602082019050919050565b60006020820190508181036000830152612e9e81612e62565b9050919050565b7f4552433732313a20746f6b656e20616c7265616479206d696e74656400000000600082015250565b6000612edb601c83612038565b9150612ee682612ea5565b602082019050919050565b60006020820190508181036000830152612f0a81612ece565b9050919050565b7f45524337323155524953746f726167653a2055524920736574206f66206e6f6e60008201527f6578697374656e7420746f6b656e000000000000000000000000000000000000602082015250565b6000612f6d602e83612038565b9150612f7882612f11565b604082019050919050565b60006020820190508181036000830152612f9c81612f60565b9050919050565b60008190508160005260206000209050919050565b60006020601f8301049050919050565b600082821b905092915050565b6000600883026130057fffffffffffffffffffffffffffffffffffffffffffffffffffffffffffffffff82612fc8565b61300f8683612fc8565b95508019841693508086168417925050509392505050565b6000819050919050565b600061304c613047613042846120df565b613027565b6120df565b9050919050565b6000819050919050565b61306683613031565b61307a61307282613053565b848454612fd5565b825550505050565b600090565b61308f613082565b61309a81848461305d565b505050565b5b818110156130be576130b3600082613087565b6001810190506130a0565b5050565b601f821115613103576130d481612fa3565b6130dd84612fb8565b810160208510156130ec578190505b6131006130f885612fb8565b83018261309f565b50505b505050565b600082821c905092915050565b600061312660001984600802613108565b1980831691505092915050565b600061313f8383613115565b9150826002028217905092915050565b6131588261202d565b67ffffffffffffffff8111156131715761317061240a565b5b61317b8254612737565b6131868282856130c2565b600060209050601f8311600181146131b957600084156131a7578287015190505b6131b18582613133565b865550613219565b601f1984166131c786612fa3565b60005b828110156131ef578489015182556001820191506020850194506020810190506131ca565b8683101561320c5784890151613208601f891682613115565b8355505b6001600288020188555050505b505050505050565b600081519050919050565b600082825260208201905092915050565b600061324882613221565b613252818561322c565b9350613262818560208601612049565b61326b81612073565b840191505092915050565b600060808201905061328b6000830187612174565b6132986020830186612174565b6132a5604083018561228a565b81810360608301526132b7818461323d565b905095945050505050565b6000815190506132d181611f9e565b92915050565b6000602082840312156132ed576132ec611f68565b5b60006132fb848285016132c2565b91505092915050565b7f4e487b7100000000000000000000000000000000000000000000000000000000600052601260045260246000fdfea26469706673582212207a9a1be26ef65c79a298589dca9cadb68634e5fcd43ed6281af75ca0d74c1f7764736f6c63430008130033",
  "linkReferences": {},
  "deployedLinkReferences": {}
}